:100000000C9446000C9463000C9463000C94630001
:100010000C9463000C9463000C9463000C946300D4
:100020000C9463000C9463000C9463000C946300C4
:100030000C9463000C9463000C9463000C946300B4
:100040000C9463000C9463000C9463000C946300A4
:100050000C9463000C9463000C9463000C94630094
:100060000C9463000C9463000C9463000C94630084
:100070000C9463000C9463000C9463000C94630074
:100080000C9463000C9463000C94630011241FBE55
:10009000CFEFD0E1DEBFCDBF11E0A0E0B1E0E8E7F7
:1000A000F9E002C005900D92A830B107D9F711E030
:1000B000A8E0B1E001C01D92AB30B107E1F70E94AA
:1000C00055010C94BA040C9400002091080190E0B2
:1000D00002C09F5F2AE09817E0F3209308019093F5
:1000E00009010895DA9A8AEF0E946500DA98089566
:1000F0000F931F93082F8BB384708BBB802F807F4F
:100100008BBB0E94720010E00F70107084E0000F33
:10011000111F8A95E1F70BBB0E9472001F910F918E
:1001200008951F93182F81E08BBB8BB382708BBB1C
:10013000812F807F81608BBB0E9472001295107F9F
:1001400011601BBB0E9472001F910895EF92FF92F5
:100150001F93CF93DF937C0181E08BBB8BB38270C5
:100160008BBB10E013C0103119F480EC0E947800B2
:100170008881807F81608BBB0E947200888182951C
:10018000807F81608BBB0E9472001F5FE701C10FFF
:10019000D11D8881882339F7DF91CF911F91FF907E
:1001A000EF90089580580E947800089580540E942E
:1001B00078000895893021F40E94910089E006C0FA
:1001C0008A3021F480E00E94D60008950E949100B8
:1001D0000895DF92EF92FF920F931F93082FE82F5D
:1001E000F0E0CF0164E670E00E94BB01D62E262F1E
:1001F00030E08CE99FEF289F7001299FF00C389F19
:10020000F00C1124C7018E0F9F1F6AE070E00E945E
:10021000BB01162F80E30E94DA008D2D805D0E94C5
:10022000DA00812F805D0E94DA00005D0E0D86EFFE
:100230009FEF189F102D1124812F800F0E94DA004C
:100240001F910F91FF90EF90DF90089580910A0128
:100250008BBB08950AC020E030E000002F5F3F4FC5
:100260004CE02C3C3407C9F701970097A1F708959B
:100270008BB380930A018FEF8ABB8FE090E00E94DE
:100280002A018BB384708BBB81E00E9478008FE0E1
:100290000E94780082E00E94780080E80E94780046
:1002A0008FE090E00E942A010895809164008561AA
:1002B00080936400809165008160809365000E9456
:1002C000380180E091E00E94A60080EA85BB20E032
:1002D00030E048E255E06AE1CA010197F1F7809108
:1002E0006500806180936500862F8A95F1F7809183
:1002F00065008F7E809365002F5F3F4F243B310563
:1003000059F708950F931F93DF93CF93CDB7DEB7BF
:100310002A970FB6F894DEBF0FBECDBF00D000D035
:1003200000D0EDB7FEB731968E010F5F1F4FADB70E
:10033000BEB712961C930E93119724E031E03383DD
:100340002283958384830E94E2018DB79EB706962F
:100350000FB6F8949EBF0FBE8DBFC8010E94A600C5
:100360002A960FB6F894DEBF0FBECDBFCF91DF91B6
:100370001F910F91089597FB092E07260AD077FD4C
:1003800004D00CD006D000201AF4709561957F4FF0
:100390000895F6F7909581959F4F0895AA1BBB1B72
:1003A00051E107C0AA1FBB1FA617B70710F0A61B75
:1003B000B70B881F991F5A95A9F780959095BC0196
:1003C000CD010895AEE0B0E0E8EEF1E00C949104C8
:1003D0000D891E8986E08C831A8309838FEF9FE73E
:1003E0009E838D839E01275E3F4FCE0101966F89CC
:1003F000788DA9010E9406022F813885020F131FF4
:10040000F80110822E96E4E00C94AD04ABE0B0E06D
:10041000ECE0F2E00C9483043C012B015A01FC0156
:1004200017821682838181FD03C06FEF7FEFC6C103
:100430009AE0892E1E010894211C311CF3012381AE
:10044000F20123FD859123FF81912F01882309F477
:10045000B2C1853239F423FD859123FF81912F01AB
:10046000853229F490E0B3010E94F903E7CF982F79
:10047000FF24EE249924FFE1FF15D0F09B3269F0B0
:100480009C3228F4903259F0933291F40EC09D3290
:1004900049F0903369F441E024C052E0F52A84E049
:1004A000F82A28C098E0F92A25C0E0E1FE2A22C0F7
:1004B000F7FC29C0892F80538A3070F4F6FE05C0FE
:1004C000989C902C1124980E15C0E89CE02C1124C7
:1004D000E80EF0E2FF2A0EC09E3229F4F6FC6BC152
:1004E00040E4F42A07C09C3619F450E8F52A02C00B
:1004F000983649F4F20123FD959123FF91912F0144
:10050000992309F0B8CF892F8554833018F0805291
:10051000833038F444E050E0A40EB51E5FE3598305
:100520000FC0933631F0933779F0933509F056C008
:1005300020C0F5018081898342E050E0A40EB51E01
:10054000610101E010E012C0F501C080D180F6FC2D
:1005500003C06FEF7FEF02C0692D70E042E050E012
:10056000A40EB51EC6010E94EE038C015FE7F522C2
:1005700014C0F501C080D180F6FC03C06FEF7FEF9F
:1005800002C0692D70E042E050E0A40EB51EC60125
:100590000E94E3038C0150E8F52AF3FE07C01AC05D
:1005A00080E290E0B3010E94F903EA948E2D90E07E
:1005B00008171907A8F30EC0F601F7FC8591F7FE9E
:1005C00081916F0190E0B3010E94F903E110EA9478
:1005D000015010400115110579F7EAC0943611F069
:1005E000993669F5F7FE08C0F50120813181428115
:1005F000538184E090E00AC0F501808191819C01E3
:10060000442737FD4095542F82E090E0A80EB91E94
:100610009FE6F92257FF09C05095409530952195E6
:100620003F4F4F4F5F4FE0E8FE2ACA01B901A101D9
:100630002AE030E00E942504D82ED21840C0953719
:1006400029F41F2D1F7E2AE030E01DC01F2D197FC9
:100650009F3661F0903720F4983509F0ACC00FC098
:10066000903739F0983709F0A6C004C028E030E090
:100670000AC0106114FD146020E130E004C014FDD4
:10068000166020E132E017FF08C0F501608171813A
:100690008281938144E050E008C0F501808191811E
:1006A000BC0180E090E042E050E0A40EB51EA10144
:1006B0000E942504D82ED2188FE7F82EF122F6FEDC
:1006C0000BC05EEFF522D91438F4F4FE07C0F2FC3B
:1006D00005C08FEEF82202C01D2D01C0192DF4FEB9
:1006E0000DC0FE01ED0DF11D8081803319F499EEEE
:1006F000F92208C01F5FF2FE05C003C08F2D867867
:1007000009F01F5F0F2DF3FC14C0F0FE0FC01E1583
:1007100010F09D2C0BC09D2C9E0C911A1E2D06C016
:1007200080E290E0B3010E94F9031F5F1E15C0F341
:1007300004C01E1510F4E11A01C0EE2404FF0FC01E
:1007400080E390E0B3010E94F90302FF1DC001FDA8
:1007500003C088E790E00EC088E590E00BC0802FD2
:10076000867891F001FF02C08BE201C080E2F7FCC5
:100770008DE290E0B3010E94F90306C080E390E0AF
:10078000B3010E94F9039A94D914C0F3DA94F101E9
:10079000ED0DF11D808190E0B3010E94F903DD2091
:1007A000A9F706C080E290E0B3010E94F903EA9441
:1007B000EE20C1F743CEF30166817781CB012B9602
:1007C000E2E10C949F04FC0105906150704001101F
:1007D000D8F7809590958E0F9F1F0895FC0161506A
:1007E000704001900110D8F7809590958E0F9F1F53
:1007F00008950F931F93CF93DF938C01EB018B81AF
:1008000081FF1BC082FF0DC02E813F818C819D81A5
:100810002817390764F4E881F9810193F983E883A3
:1008200006C0E885F985802F0995892B31F48E81E2
:100830009F8101969F838E8302C00FEF1FEFC80137
:10084000DF91CF911F910F910895FA01AA272830C7
:1008500051F1203181F1E8946F936E7F6E5F7F4F8D
:100860008F4F9F4FAF4FB1E03ED0B4E03CD0670F09
:10087000781F891F9A1FA11D680F791F8A1F911D5C
:10088000A11D6A0F711D811D911DA11D20D009F4AC
:1008900068943F912AE0269F11243019305D3193EE
:1008A000DEF6CF010895462F4770405D4193B3E0D7
:1008B0000FD0C9F7F6CF462F4F70405D4A3318F07E
:1008C000495D31FD4052419302D0A9F7EACFB4E02F
:1008D000A6959795879577956795BA95C9F70097E7
:1008E0006105710508959B01AC010A2E0694579588
:1008F000479537952795BA95C9F7620F731F841FDF
:10090000951FA01D08952F923F924F925F926F9274
:100910007F928F929F92AF92BF92CF92DF92EF928F
:10092000FF920F931F93CF93DF93CDB7DEB7CA1B10
:10093000DB0B0FB6F894DEBF0FBECDBF09942A883B
:10094000398848885F846E847D848C849B84AA84E3
:10095000B984C884DF80EE80FD800C811B81AA8170
:10096000B981CE0FD11D0FB6F894DEBF0FBECDBF3B
:08097000ED010895F894FFCF9A
:080978006466640025640000C0
:00000001FF
