:100000000C9446000C9465000C9465000C946500FB
:100010000C9465000C9465000C9465000C946500CC
:100020000C9465000C9465000C9465000C946500BC
:100030000C947A010C9465000C9465000C94650096
:100040000C9465000C9465000C9465000C9465009C
:100050000C9465000C9465000C9465000C9465008C
:100060000C9465000C9465000C9465000C9465007C
:100070000C9465000C9465000C9465000C9465006C
:100080000C9465000C9465000C94650011241FBE4F
:10009000CFEFD0E1DEBFCDBF11E0A0E0B1E0E8E3FB
:1000A000FCE000E00BBF02C007900D92A430B10746
:1000B000D9F711E0A4E0B1E001C01D92AB30B10767
:1000C000E1F70E9422020C941A060C940000209181
:1000D000040190E002C09F5F2AE09817E0F32093AC
:1000E0000401909305010895DA9A8AEF0E9467004F
:1000F000DA9808950F931F93082F8BB384708BBBEE
:10010000802F807F8BBB0E94740010E00F701070F6
:1001100084E0000F111F8A95E1F70BBB0E94740069
:100120001F910F9108951F93182F81E08BBB8BB304
:1001300082708BBB812F807F81608BBB0E9474009B
:100140001295107F11601BBB0E9474001F910895CF
:10015000EF92FF921F93CF93DF937C0181E08BBBE3
:100160008BB382708BBB10E013C0103119F480EC9C
:100170000E947A008881807F81608BBB0E9474001E
:1001800088818295807F81608BBB0E9474001F5F95
:10019000E701C10FD11D8881882339F7DF91CF9105
:1001A0001F91FF90EF90089580580E947A00089563
:1001B00080540E947A000895893021F40E949300AF
:1001C00089E006C08A3021F480E00E94D8000895BA
:1001D0000E9493000895DF92EF92FF920F931F9376
:1001E000082FE82FF0E0CF0164E670E00E940703DB
:1001F000D62E262F30E08CE99FEF289F7001299F93
:10020000F00C389FF00C1124C7018E0F9F1F6AE07D
:1002100070E00E940703162F80E30E94DC008D2D02
:10022000805D0E94DC00812F805D0E94DC00005D0B
:100230000E0D86EF9FEF189F102D1124812F800F38
:100240000E94DC001F910F91FF90EF90DF900895C6
:10025000809106018BBB08950AC020E030E00000C9
:100260002F5F3F4F4CE02C3C3407C9F701970097B4
:10027000A1F708958BB3809306018FEF8ABB8FE0BF
:1002800090E00E942C018BB384708BBB81E00E94B4
:100290007A008FE00E947A0082E00E947A0080E873
:1002A0000E947A008FE090E00E942C01089587E67A
:1002B0008093990088E180939B000895982F809106
:1002C0009A0085FFFCCF90939C00089580919A003E
:1002D00087FFFCCF80919C000895FC0107C08091AE
:1002E0009A0085FFFCCF319690939C0090819923D2
:1002F000B1F708951F920F920FB60F9211242F930A
:100300003F934F938F939F93789485B3809585BB4C
:100310008091650081608093650080910301813048
:10032000F9F410920A012CEA38E04AE115C08091F4
:100330006500806180936500C9010197F1F78091A4
:1003400065008F7E80936500842F8A95F1F78091F8
:100350000A018F5F80930A0180910A01883C38F37B
:100360009F918F914F913F912F910F900FBE0F90C2
:100370001F9018958EB58D608EBD89E09DE39BBD65
:100380008ABD87B7806187BF789408951092650011
:100390008091650081608093650082E085BB20E0EC
:1003A0006FEF4CEA58E03AE165BBCA010197F1F7FB
:1003B00080916500806180936500832F8A95F1F7B5
:1003C000809165008F7E809365002F5F223361F7F7
:1003D000809107018F5F809307016091070189E198
:1003E00090E00E946D05089510926500809165006F
:1003F0008E7F8093650081E085BB20E06FEF4CEA43
:1004000058E03AE165BBCA010197F1F780916500B8
:10041000806180936500832F8A95F1F78091650054
:100420008F7E809365002F5F223361F780910701F3
:100430008150809307016091070189E190E00E945B
:100440006D0508951F93809164008D618093640011
:1004500080916500846080936500809165008E7F47
:10046000809365001FEF14BB87E68093990088E1B5
:1004700080939B000E943A0181B38F7381BB82B14C
:100480008F7382B982B3806C82BB83B1806C83B975
:1004900014BB809164008161809364008091650049
:1004A0008E7F80936500869903C0F8940E94C601F0
:1004B000879903C0F8940E94F4010F99F4CF0E9429
:1004C000BA01F1CF89E190E00E946505282F1092D2
:1004D0000A014CEA58E03AE115C08091650080615C
:1004E00080936500CA010197F1F7809165008F7EC6
:1004F00080936500832F8A95F1F780910A018F5FC1
:1005000080930A0180910A01883C38F309C08FEF7B
:100510009FEFFA013197F1F70197D9F72F5F02C0EA
:1005200040E951E0293798F308950F931F93DF9323
:10053000CF93CDB7DEB72A970FB6F894DEBF0FBEC4
:10054000CDBF00D000D000D0EDB7FEB731968E0100
:100550000F5F1F4FADB7BEB712961C930E93119746
:1005600020E031E033832283958384830E942E032D
:100570008DB79EB706960FB6F8949EBF0FBE8DBF7F
:10058000C8010E946D012A960FB6F894DEBF0FBE17
:10059000CDBFCF91DF911F910F9108950F931F93BE
:1005A000DF93CF93CDB7DEB72A970FB6F894DEBFAF
:1005B0000FBECDBF00D000D000D0EDB7FEB7319652
:1005C0008E010F5F1F4FADB7BEB712961C930E93EF
:1005D000119720E031E033832283958384830E9446
:1005E0002E038DB79EB706960FB6F8949EBF0FBE2A
:1005F0008DBFC8010E94A8002A960FB6F894DEBFEE
:100600000FBECDBFCF91DF911F910F91089597FB42
:10061000092E07260AD077FD04D00CD006D0002082
:100620001AF4709561957F4F0895F6F7909581952E
:100630009F4F0895AA1BBB1B51E107C0AA1FBB1FF8
:10064000A617B70710F0A61BB70B881F991F5A955E
:10065000A9F780959095BC01CD0108950F931F9344
:10066000DF93CF93CDB7DEB72E970FB6F894DEBFEA
:100670000FBECDBF0D891E8986E08C831A83098346
:100680008FEF9FE79E838D839E01275E3F4FCE01B4
:1006900001966F89788DA9010E945F032F813885AB
:1006A000020F131FF80110822E960FB6F894DEBFCA
:1006B0000FBECDBFCF91DF911F910F9108952F9263
:1006C0003F924F925F926F927F928F929F92AF92E2
:1006D000BF92CF92DF92EF92FF920F931F93DF931F
:1006E000CF93CDB7DEB72B970FB6F894DEBF0FBE12
:1006F000CDBF3C012B015A01FC0117821682838178
:1007000081FD03C06FEF7FEFC6C19AE0892E1E0105
:100710000894211C311CF3012381F20123FD8591F2
:1007200023FF81912F01882309F4B2C1853239F466
:1007300023FD859123FF81912F01853229F490E0DB
:10074000B3010E949005E7CF982FFF24EE2499244F
:10075000FFE1FF15D0F09B3269F09C3228F4903213
:1007600059F0933291F40EC09D3249F0903369F400
:1007700041E024C052E0F52A84E0F82A28C098E03D
:10078000F92A25C0E0E1FE2A22C0F7FC29C0892F02
:1007900080538A3070F4F6FE05C0989C902C11248A
:1007A000980E15C0E89CE02C1124E80EF0E2FF2A18
:1007B0000EC09E3229F4F6FC6BC140E4F42A07C057
:1007C0009C3619F450E8F52A02C0983649F4F20133
:1007D00023FD959123FF91912F01992309F0B8CF23
:1007E000892F8554833018F08052833038F444E0E8
:1007F00050E0A40EB51E5FE359830FC0933631F06D
:10080000933779F0933509F056C020C0F501808107
:10081000898342E050E0A40EB51E610101E010E0C2
:1008200012C0F501C080D180F6FC03C06FEF7FEFEE
:1008300002C0692D70E042E050E0A40EB51EC60172
:100840000E9485058C015FE7F52214C0F501C08088
:10085000D180F6FC03C06FEF7FEF02C0692D70E01E
:1008600042E050E0A40EB51EC6010E947A058C013C
:1008700050E8F52AF3FE07C01AC080E290E0B30109
:100880000E949005EA948E2D90E008171907A8F3AE
:100890000EC0F601F7FC8591F7FE81916F0190E0A3
:1008A000B3010E949005E110EA9401501040011537
:1008B000110579F7EAC0943611F0993669F5F7FE1B
:1008C00008C0F501208131814281538184E090E0AC
:1008D0000AC0F501808191819C01442737FD409534
:1008E000542F82E090E0A80EB91E9FE6F92257FF30
:1008F00009C050954095309521953F4F4F4F5F4F20
:10090000E0E8FE2ACA01B901A1012AE030E00E9414
:10091000BC05D82ED21840C0953729F41F2D1F7E54
:100920002AE030E01DC01F2D197F9F3661F09037FF
:1009300020F4983509F0ACC00FC0903739F09837E3
:1009400009F0A6C004C028E030E00AC0106114FD20
:10095000146020E130E004C014FD166020E132E0B4
:1009600017FF08C0F501608171818281938144E0A5
:1009700050E008C0F50180819181BC0180E090E0E9
:1009800042E050E0A40EB51EA1010E94BC05D82E85
:10099000D2188FE7F82EF122F6FE0BC05EEFF5229B
:1009A000D91438F4F4FE07C0F2FC05C08FEEF8222B
:1009B00002C01D2D01C0192DF4FE0DC0FE01ED0D6C
:1009C000F11D8081803319F499EEF92208C01F5F70
:1009D000F2FE05C003C08F2D867809F01F5F0F2D32
:1009E000F3FC14C0F0FE0FC01E1510F09D2C0BC0C0
:1009F0009D2C9E0C911A1E2D06C080E290E0B30142
:100A00000E9490051F5F1E15C0F304C01E1510F450
:100A1000E11A01C0EE2404FF0FC080E390E0B301AF
:100A20000E94900502FF1DC001FD03C088E790E011
:100A30000EC088E590E00BC0802F867891F001FF12
:100A400002C08BE201C080E2F7FC8DE290E0B301CE
:100A50000E94900506C080E390E0B3010E949005DB
:100A60009A94D914C0F3DA94F101ED0DF11D80814F
:100A700090E0B3010E949005DD20A9F706C080E256
:100A800090E0B3010E949005EA94EE20C1F743CEB6
:100A9000F30166817781CB012B960FB6F894DEBF08
:100AA0000FBECDBFCF91DF911F910F91FF90EF90BF
:100AB000DF90CF90BF90AF909F908F907F906F907E
:100AC0005F904F903F902F900895E199FECF9FBB8C
:100AD0008EBBE09A99278DB30895262FE199FECF1A
:100AE0009FBB8EBB2DBB0FB6F894E29AE19A0FBE66
:100AF00001960895FC010590615070400110D8F7EF
:100B0000809590958E0F9F1F0895FC016150704055
:100B100001900110D8F7809590958E0F9F1F089532
:100B20000F931F93CF93DF938C01EB018B8181FF98
:100B30001BC082FF0DC02E813F818C819D812817B3
:100B4000390764F4E881F9810193F983E88306C0E9
:100B5000E885F985802F0995892B31F48E819F8155
:100B600001969F838E8302C00FEF1FEFC801DF91B4
:100B7000CF911F910F910895FA01AA27283051F1C2
:100B8000203181F1E8946F936E7F6E5F7F4F8F4FBE
:100B90009F4FAF4FB1E03ED0B4E03CD0670F781F1D
:100BA000891F9A1FA11D680F791F8A1F911DA11D02
:100BB0006A0F711D811D911DA11D20D009F468943B
:100BC0003F912AE0269F11243019305D3193DEF6E3
:100BD000CF010895462F4770405D4193B3E00FD099
:100BE000C9F7F6CF462F4F70405D4A3318F0495D84
:100BF00031FD4052419302D0A9F7EACFB4E0A69567
:100C00009795879577956795BA95C9F70097610588
:100C1000710508959B01AC010A2E069457954795DE
:100C200037952795BA95C9F7620F731F841F951FD3
:080C3000A01D0895F894FFCF08
:040C3800256400012E
:00000001FF
