:100000000C9446000C9465000C9465000C946500FB
:100010000C9465000C947F020C9406030C94560417
:100020000C941F040C9465000C9465000C946500FE
:100030000C9465000C9465000C9465000C946500AC
:100040000C9465000C9465000C9465000C9465009C
:100050000C9465000C9465000C9465000C9465008C
:100060000C9465000C9465000C9465000C9465007C
:100070000C9465000C9465000C9465000C9465006C
:100080000C9465000C9465000C94650011241FBE4F
:10009000CFEFD0E1DEBFCDBF11E0A0E0B1E0E4E6FC
:1000A000FFE000E00BBF02C007900D92AA31B1073C
:1000B000D9F711E0AAE1B1E001C01D92A432B10765
:1000C000E1F70E94FE030C94B0070C94000020910D
:1000D0001A0190E002C09F5F2AE09817E0F3209396
:1000E0001A0190931B010895DA9A8AEF0E94670023
:1000F000DA9808950F931F93082F8BB384708BBBEE
:10010000802F807F8BBB0E94740010E00F701070F6
:1001100084E0000F111F8A95E1F70BBB0E94740069
:100120001F910F9108951F93182F81E08BBB8BB304
:1001300082708BBB812F807F81608BBB0E9474009B
:100140001295107F11601BBB0E9474001F910895CF
:10015000EF92FF921F93CF93DF937C0181E08BBBE3
:100160008BB382708BBB10E013C0103119F480EC9C
:100170000E947A008881807F81608BBB0E9474001E
:1001800088818295807F81608BBB0E9474001F5F95
:10019000E701C10FD11D8881882339F7DF91CF9105
:1001A0001F91FF90EF90089580580E947A00089563
:1001B00080540E947A000895893021F40E949300AF
:1001C00089E006C08A3021F480E00E94D8000895BA
:1001D0000E9493000895DF92EF92FF920F931F9376
:1001E000082FE82FF0E0CF0164E670E00E949D0444
:1001F000D62E262F30E08CE99FEF289F7001299F93
:10020000F00C389FF00C1124C7018E0F9F1F6AE07D
:1002100070E00E949D04162F80E30E94DC008D2D6B
:10022000805D0E94DC00812F805D0E94DC00005D0B
:100230000E0D86EF9FEF189F102D1124812F800F38
:100240000E94DC001F910F91FF90EF90DF900895C6
:1002500080911C018BBB08950AC020E030E00000B3
:100260002F5F3F4F4CE02C3C3407C9F701970097B4
:10027000A1F708958BB380931C018FEF8ABB8FE0A9
:1002800090E00E942C018BB384708BBB81E00E94B4
:100290007A008FE00E947A0082E00E947A0080E873
:1002A0000E947A008FE090E00E942C01089587E67A
:1002B0008093990088E180939B000895982F809106
:1002C0009A0085FFFCCF90939C00089580919A003E
:1002D00087FFFCCF80919C000895FC0107C08091AE
:1002E0009A0085FFFCCF319690939C0090819923D2
:1002F000B1F70895109223012CEA38E04AE115C0C5
:1003000080916500806180936500C9010197F1F7D4
:10031000809165008F7E80936500842F8A95F1F728
:10032000809123018F5F8093230180912301883C7A
:1003300038F3089588E893E120E931E0F901319735
:10034000F1F70197D9F7809165008E7F8093650062
:10035000089588E893E120E931E0F9013197F1F758
:100360000197D9F7809165008160809365000895B9
:100370001ABE89B7806F89BF08950F931F93DF93CB
:10038000CF93CDB7DEB72A970FB6F894DEBF0FBE76
:10039000CDBF00D000D000D0EDB7FEB731968E01B2
:1003A0000F5F1F4FADB7BEB712961C930E931197F8
:1003B00020E031E033832283958384830E94C40448
:1003C0008DB79EB706960FB6F8949EBF0FBE8DBF31
:1003D000C8010E946D012A960FB6F894DEBF0FBEC9
:1003E000CDBFCF91DF911F910F9108950F931F9370
:1003F000DF93CF93CDB7DEB72A970FB6F894DEBF61
:100400000FBECDBF00D000D000D0EDB7FEB7319603
:100410008E010F5F1F4FADB7BEB712961C930E93A0
:10042000119720E031E033832283958384830E94F7
:10043000C4048DB79EB706960FB6F8949EBF0FBE44
:100440008DBFC8010E94A8002A960FB6F894DEBF9F
:100450000FBECDBFCF91DF911F910F9108951092E4
:10046000210181E080932201109265008091650056
:1004700081608093650082E085BB89E190E00E9405
:10048000FB0680931D0180911D01823020F120E048
:100490006FEF4CEA58E03AE165BBCA010197F1F70A
:1004A00080916500806180936500832F8A95F1F7C4
:1004B000809165008F7E809365002F5F223361F706
:1004C00080911D01815080931D0160911D0189E182
:1004D00090E00E94030785E00E94D40083E091E051
:1004E0000E94A80080E00E94D40088E091E00E9471
:1004F000A80080911D0190E00E94F60108951F92CE
:100500000F920FB60F920BB60F9211242F933F93B9
:100510004F935F936F937F938F939F93AF93BF930B
:10052000EF93FF9310921E0188E893E120E931E0F8
:10053000F9013197F1F70197D9F70E942F0281E075
:1005400080931E01FF91EF91BF91AF919F918F9189
:100550007F916F915F914F913F912F910F900BBEC3
:100560000F900FBE0F901F9018951092650091E0AC
:100570009093210110922201809165008E7F8093DB
:10058000650095BB89E190E00E94FB0680931D0108
:1005900080911D018C3020F520E06FEF4CEA58E08F
:1005A0003AE165BBCA010197F1F78091650080616E
:1005B00080936500832F8A95F1F7809165008F7E87
:1005C000809365002F5F223361F780911D018F5F5B
:1005D00080931D0160911D0189E190E00E94030755
:1005E00085E00E94D80083E091E00E94A80080E0AE
:1005F0000E94D8008DE091E00E94A80089E190E07F
:100600000E94FB0690E00E94F60108951F920F924F
:100610000FB60F920BB60F9211242F933F934F9367
:100620005F936F937F938F939F93AF93BF93EF935A
:10063000FF9310921E0188E893E120E931E0F9016F
:100640003197F1F70197D9F70E94B50281E08093C5
:100650001E01FF91EF91BF91AF919F918F917F917B
:100660006F915F914F913F912F910F900BBE0F9023
:100670000FBE0F901F901895AF92BF92CF92DF924E
:10068000EF92FF920F931F93CF93DF93F89489E13A
:1006900090E00E94FB0680931D0110911D0153E321
:1006A000A52E4CEAC42E48E0D42E3AE1B32E20E821
:1006B000E22E2EE3F22EC0E9D1E001E052C0A5BA4D
:1006C0000E949A011092230116C0F894809165004F
:1006D000806180936500C6010197F1F78091650004
:1006E0008F7E809365008B2D8A95F1F78091230191
:1006F0008F5F8093230180912301823330F31F5F4A
:1007000089E190E0612F0E940307C7010197F1F78B
:1007100080911E018130A1F489E190E00E94FB06E6
:10072000182F8DE00E94D800812F90E00E94F601E2
:1007300088EB9BE0FE013197F1F70197D9F705BBF4
:100740008AE00E94D40081E191E00E94A8008AE042
:100750000E94D40089E190E00E94FB0690E00E9494
:10076000F6011D3008F4ABCF1DE097E7F92ECCEA77
:10077000D8E00AE1F5BA0E94A9011092230115C040
:1007800080916500806180936500CE010197F1F74B
:10079000809165008F7E80936500802F8A95F1F7A8
:1007A000809123018F5F8093230180912301823305
:1007B00038F3115089E190E0612F0E9403078AE02D
:1007C0000E94D40081E191E00E94A8008AE00E948A
:1007D000D40089E190E00E94FB0690E00E94F601BF
:1007E000113041F67894DF91CF911F910F91FF90D6
:1007F000EF90DF90CF90BF90AF9008951F931FEFC1
:1008000014BB82B18F7882B983B1806783B90E94AB
:100810003A0114BB809164008161809364008E98DA
:1008200080E482BB809165008E7F80936500789420
:100830001ABE89B7806F89BF0E943C03FFCF1F9209
:100840000F920FB60F920BB60F9211242F933F9376
:100850004F935F936F937F938F939F93AF93BF93C8
:10086000EF93FF938AE00E94D80085E191E00E9417
:10087000A8008AE00E94D80089E190E00E94FB066F
:1008800090E00E94F601FF91EF91BF91AF919F918F
:100890008F917F916F915F914F913F912F910F9029
:1008A0000BBE0F900FBE0F901F9018951F920F92C6
:1008B0000FB60F920BB60F9211242F933F934F93C5
:1008C0005F936F937F938F939F93AF93BF93EF93B8
:1008D000FF9388E893E120E931E0F9013197F1F7DE
:1008E0000197D9F782EF85BB89E190E061E00E9432
:1008F000030785E00E94D80085E191E00E94A800EE
:1009000085E00E94D80089E190E00E94FB0690E01B
:100910000E94F601FF91EF91BF91AF919F918F914E
:100920007F916F915F914F913F912F910F900BBEEF
:100930000F900FBE0F901F90189597FB092E07265A
:100940000AD077FD04D00CD006D000201AF47095A0
:1009500061957F4F0895F6F7909581959F4F089583
:10096000AA1BBB1B51E107C0AA1FBB1FA617B707D5
:1009700010F0A61BB70B881F991F5A95A9F78095F1
:100980009095BC01CD0108950F931F93DF93CF93F2
:10099000CDB7DEB72E970FB6F894DEBF0FBECDBF32
:1009A0000D891E8986E08C831A8309838FEF9FE768
:1009B0009E838D839E01275E3F4FCE0101966F89F6
:1009C000788DA9010E94F5042F813885020F131F2D
:1009D000F80110822E960FB6F894DEBF0FBECDBF81
:1009E000CF91DF911F910F9108952F923F924F92D7
:1009F0005F926F927F928F929F92AF92BF92CF92AF
:100A0000DF92EF92FF920F931F93DF93CF93CDB7B7
:100A1000DEB72B970FB6F894DEBF0FBECDBF3C01FB
:100A20002B015A01FC0117821682838181FD03C0CC
:100A30006FEF7FEFC6C19AE0892E1E010894211C3A
:100A4000311CF3012381F20123FD859123FF819164
:100A50002F01882309F4B2C1853239F423FD859131
:100A600023FF81912F01853229F490E0B3010E9488
:100A70002607E7CF982FFF24EE249924FFE1FF15E6
:100A8000D0F09B3269F09C3228F4903259F09332C6
:100A900091F40EC09D3249F0903369F441E024C0D6
:100AA00052E0F52A84E0F82A28C098E0F92A25C007
:100AB000E0E1FE2A22C0F7FC29C0892F80538A304A
:100AC00070F4F6FE05C0989C902C1124980E15C069
:100AD000E89CE02C1124E80EF0E2FF2A0EC09E32C2
:100AE00029F4F6FC6BC140E4F42A07C09C3619F4E3
:100AF00050E8F52A02C0983649F4F20123FD959199
:100B000023FF91912F01992309F0B8CF892F8554A4
:100B1000833018F08052833038F444E050E0A40E63
:100B2000B51E5FE359830FC0933631F0933779F0E8
:100B3000933509F056C020C0F5018081898342E0D9
:100B400050E0A40EB51E610101E010E012C0F501F5
:100B5000C080D180F6FC03C06FEF7FEF02C0692D2B
:100B600070E042E050E0A40EB51EC6010E941B07D3
:100B70008C015FE7F52214C0F501C080D180F6FC3E
:100B800003C06FEF7FEF02C0692D70E042E050E0DC
:100B9000A40EB51EC6010E9410078C0150E8F52A6C
:100BA000F3FE07C01AC080E290E0B3010E9426075E
:100BB000EA948E2D90E008171907A8F30EC0F601ED
:100BC000F7FC8591F7FE81916F0190E0B3010E94DF
:100BD0002607E110EA94015010400115110579F73C
:100BE000EAC0943611F0993669F5F7FE08C0F501B0
:100BF000208131814281538184E090E00AC0F50177
:100C0000808191819C01442737FD4095542F82E0DB
:100C100090E0A80EB91E9FE6F92257FF09C0509533
:100C20004095309521953F4F4F4F5F4FE0E8FE2AAA
:100C3000CA01B901A1012AE030E00E945207D82E72
:100C4000D21840C0953729F41F2D1F7E2AE030E0CE
:100C50001DC01F2D197F9F3661F0903720F4983505
:100C600009F0ACC00FC0903739F0983709F0A6C032
:100C700004C028E030E00AC0106114FD146020E1D7
:100C800030E004C014FD166020E132E017FF08C018
:100C9000F501608171818281938144E050E008C058
:100CA000F50180819181BC0180E090E042E050E05C
:100CB000A40EB51EA1010E945207D82ED2188FE7AC
:100CC000F82EF122F6FE0BC05EEFF522D91438F4AF
:100CD000F4FE07C0F2FC05C08FEEF82202C01D2D05
:100CE00001C0192DF4FE0DC0FE01ED0DF11D808136
:100CF000803319F499EEF92208C01F5FF2FE05C097
:100D000003C08F2D867809F01F5F0F2DF3FC14C0F0
:100D1000F0FE0FC01E1510F09D2C0BC09D2C9E0CDC
:100D2000911A1E2D06C080E290E0B3010E942607B2
:100D30001F5F1E15C0F304C01E1510F4E11A01C098
:100D4000EE2404FF0FC080E390E0B3010E94260769
:100D500002FF1DC001FD03C088E790E00EC088E5DA
:100D600090E00BC0802F867891F001FF02C08BE2EB
:100D700001C080E2F7FC8DE290E0B3010E942607FB
:100D800006C080E390E0B3010E9426079A94D9142C
:100D9000C0F3DA94F101ED0DF11D808190E0B30113
:100DA0000E942607DD20A9F706C080E290E0B3018B
:100DB0000E942607EA94EE20C1F743CEF301668134
:100DC0007781CB012B960FB6F894DEBF0FBECDBF57
:100DD000CF91DF911F910F91FF90EF90DF90CF9017
:100DE000BF90AF909F908F907F906F905F904F904B
:100DF0003F902F900895E199FECF9FBB8EBBE09A64
:100E000099278DB30895262FE199FECF9FBB8EBB06
:100E10002DBB0FB6F894E29AE19A0FBE01960895A1
:100E2000FC010590615070400110D8F780959095B5
:100E30008E0F9F1F0895FC016150704001900110BA
:100E4000D8F7809590958E0F9F1F08950F931F934D
:100E5000CF93DF938C01EB018B8181FF1BC082FF5D
:100E60000DC02E813F818C819D812817390764F444
:100E7000E881F9810193F983E88306C0E885F98563
:100E8000802F0995892B31F48E819F8101969F8354
:100E90008E8302C00FEF1FEFC801DF91CF911F912A
:100EA0000F910895FA01AA27283051F1203181F1DC
:100EB000E8946F936E7F6E5F7F4F8F4F9F4FAF4F62
:100EC000B1E03ED0B4E03CD0670F781F891F9A1F75
:100ED000A11D680F791F8A1F911DA11D6A0F711D29
:100EE000811D911DA11D20D009F468943F912AE035
:100EF000269F11243019305D3193DEF6CF0108951D
:100F0000462F4770405D4193B3E00FD0C9F7F6CF4D
:100F1000462F4F70405D4A3318F0495D31FD405215
:100F2000419302D0A9F7EACFB4E0A69597958795AB
:100F300077956795BA95C9F700976105710508958A
:100F40009B01AC010A2E0694579547953795279536
:100F5000BA95C9F7620F731F841F951FA01D0895CE
:040F6000F894FFCF33
:100F640025640020202020004343573D0043573D83
:0A0F740000202020002020000100D2
:00000001FF
