:100000000C942A000C9442020C94B9020C94470000
:100010000C9447000C9447000C9447000C94470044
:100020000C9447000C9447000C9447000C94470034
:100030000C9447000C9447000C9447000C94470024
:100040000C9447000C9447000C9424040C94470033
:100050000C94470011241FBECFE5D4E0DEBFCDBF16
:1000600010E0A0E6B0E0EAEFFEE002C005900D92DD
:10007000AA39B107D9F710E0AAE9B0E001C01D9292
:10008000A03AB107E1F70E9442030C947B070C945D
:10009000000020919A0090E002C09F5F2AE098172C
:1000A000E0F320939A0090939B000895DA9A8AEFE8
:1000B0000E944900DA9808950F931F93082F8BB37D
:1000C00084708BBB802F807F8BBB0E94560010E01A
:1000D0000F70107084E0000F111F8A95E1F70BBBC1
:1000E0000E9456001F910F9108951F93182F81E0D1
:1000F0008BBB8BB382708BBB812F807F81608BBB6E
:100100000E9456001295107F11601BBB0E94560082
:100110001F910895EF92FF921F93CF93DF937C017D
:1001200081E08BBB8BB382708BBB10E013C01031AE
:1001300019F480EC0E945C008881807F81608BBB19
:100140000E94560088818295807F81608BBB0E94CF
:1001500056001F5FE701C10FD11D8881882339F741
:10016000DF91CF911F91FF90EF90089580580E94EA
:100170005C00089580540E945C000895893021F449
:100180000E94750089E006C08A3021F480E00E9458
:10019000BA0008950E9475000895DF92EF92FF92D1
:1001A0000F931F93082FE82FF0E0CF0164E670E073
:1001B0000E946704D62E262F30E08CE99FEF289FFF
:1001C0007001299FF00C389FF00C1124C7018E0F8D
:1001D0009F1F6AE070E00E946704162F80E30E9470
:1001E000BE008D2D805D0E94BE00812F805D0E942B
:1001F000BE00005D0E0D86EF9FEF189F102D11249D
:10020000812F800F0E94BE001F910F91FF90EF90F1
:10021000DF90089580919C008BBB08950AC020E078
:1002200030E000002F5F3F4F4CE02C3C3407C9F713
:1002300001970097A1F708958BB380939C008FEFEF
:100240008ABB8FE090E00E940E018BB384708BBB61
:1002500081E00E945C008FE00E945C0082E00E94CE
:100260005C0080E80E945C008FE090E00E940E013C
:10027000089587E689B988E18BB90895559BFECF2B
:100280008CB90895579BFECF8CB10895FC0104C032
:10029000559BFECF31968CB980818823C9F708958C
:1002A00010929F002CEA38E04AE10DC0959AC901EE
:1002B0000197F1F79598842F8A95F1F780919F0027
:1002C0008F5F80939F0080919F00883C78F3089512
:1002D00088E893E120E931E0F9013197F1F70197DE
:1002E000D9F79498089588E893E120E931E0F9017D
:1002F0003197F1F70197D9F7949A08958BB7806CED
:100300008BBF15BE08951BBE08950F931F93DF93F7
:10031000CF93CDB7DEB72A970FB6F894DEBF0FBEE6
:10032000CDBF00D000D000D0EDB7FEB731968E0122
:100330000F5F1F4FADB7BEB712961C930E93119768
:1003400020E630E033832283958384830E948E04E9
:100350008DB79EB706960FB6F8949EBF0FBE8DBFA1
:10036000C8010E9446012A960FB6F894DEBF0FBE60
:10037000CDBFCF91DF911F910F9108950F931F93E0
:10038000DF93CF93CDB7DEB72A970FB6F894DEBFD1
:100390000FBECDBF00D000D000D0EDB7FEB7319674
:1003A0008E010F5F1F4FADB7BEB712961C930E9311
:1003B000119720E630E033832283958384830E9463
:1003C0008E048DB79EB706960FB6F8949EBF0FBEEB
:1003D0008DBFC8010E948A002A960FB6F894DEBF2E
:1003E0000FBECDBFCF91DF911F910F910895109255
:1003F0009D0081E080939E00949A82E085BB89E114
:1004000090E00E948F068093970080919700823041
:1004100028F120E06FEF4CEA58E03AE165BBCA01F1
:100420000197F1F7959A832F8A95F1F795982F5FA9
:100430002233A1F7809197008150809397006091BB
:10044000970089E190E00E94970688EB9BE020E905
:1004500031E0F9013197F1F70197D9F785E00E9472
:10046000B60083E690E00E948A0080E00E94B60019
:1004700088E690E00E948A008091970090E00E94B8
:10048000BE0108951F920F920FB60F9211242F9361
:100490003F934F935F936F937F938F939F93AF930C
:1004A000BF93EF93FF9388E893E120E931E0F901EE
:1004B0003197F1F70197D9F70E94F701FF91EF917A
:1004C000BF91AF919F918F917F916F915F914F916C
:1004D0003F912F910F900FBE0F901F90189581E0C4
:1004E00080939D0010929E00949885BB89E190E0D6
:1004F0000E948F06809397008091970020E06FEF15
:100500004CEA58E03AE165BBCA010197F1F7959AC8
:10051000832F8A95F1F795982F5F2233A1F7809169
:1005200097008F5F809397006091970089E190E03A
:100530000E94970688EB9BE020E931E0F9013197B2
:10054000F1F70197D9F785E00E94BA0083E690E0C1
:100550000E948A0080E00E94BA008DE690E00E942E
:100560008A0089E190E00E948F0690E00E94BE011F
:1005700008951F920F920FB60F9211242F933F935D
:100580004F935F936F937F938F939F93AF93BF939B
:10059000EF93FF9388E893E120E931E0F901319787
:1005A000F1F70197D9F70E946F02FF91EF91BF9188
:1005B000AF919F918F917F916F915F914F913F91FB
:1005C0002F910F900FBE0F901F901895CF92DF9232
:1005D000EF92FF920F931F93CF93DF9389E190E007
:1005E0000E948F068093970033E3C32E2CEAE22EFD
:1005F00028E0F22E9AE1D92E00E81EE3C0E9D1E00E
:1006000039C0F894959AC7010197F1F795988D2D07
:100610008A95F1F780919F008F5F80939F00809172
:100620009F00853070F3809197008F5F80939700D3
:100630006091970089E190E00E9497067894C80144
:100640000197F1F780E89BEBFE013197F1F70197F5
:10065000D9F78AE00E94B60081E790E00E948A0004
:100660008AE00E94B60089E190E00E948F0690E047
:100670000E94BE0180919700C5BA0E946801109245
:100680009F00CDCFDF92EF92FF920F931F93CF93F6
:10069000DF931FEF14BB81B3837F81BBBA9882B312
:1006A0008C6082BBC29A0E941C0114BB81B3806320
:1006B00081BB81B38F7381BB82B3806C82BB789422
:1006C0008BB7806C8BBF15BE88EB9BE020E931E0D7
:1006D000F9013197F1F70197D9F7C0E0D0E000E9CF
:1006E00011E05CEAE52E58E0F52E4AE1D42E72C006
:1006F00088EB9BE0F8013197F1F70197D9F7C49A9D
:1007000022C088EB9BE0F8013197F1F70197D9F708
:1007100085E790E00E944601949A10929F000DC0D8
:10072000C7010197F1F7959A8D2D8A95F1F7959864
:1007300080919F008F5F80939F0080919F00C0E019
:10074000D0E0823368F3869BDCCF22C088EB9BE04D
:10075000F8013197F1F70197D9F78FE790E00E9400
:100760004601949810929F000DC0C7010197F1F7C0
:10077000959A8D2D8A95F1F7959880919F008F5FBE
:1007800080939F0080919F00C0E0D0E0823368F3A7
:10079000879BDCCF13C088E893E1F8013197F1F72C
:1007A0000197D9F7219689E890E00E944601CE0191
:1007B0000E948501869B05C0879B03C0CA30D10576
:1007C00054F3CA30D10509F09ACF89E190E061E095
:1007D0000E949706CD9B8CCF7894C4980E94E60225
:1007E000FFCF1F920F920FB60F9211242F933F93BA
:1007F0004F935F936F937F938F939F93AF93BF9329
:10080000EF93FF938AE00E94BA0084E990E00E948F
:100810008A008AE00E94BA0089E190E00E948F0677
:1008200090E00E94BE01FF91EF91BF91AF919F9127
:100830008F917F916F915F914F913F912F910F9089
:100840000FBE0F901F9018951F920F920FB60F9228
:1008500011242F933F934F935F936F937F938F93C5
:100860009F93AF93BF93EF93FF9388E893E120E9C1
:1008700031E0F9013197F1F70197D9F782EF85BBA4
:1008800089E190E061E00E94970685E00E94BA004D
:1008900084E990E00E948A0085E00E94BA0089E124
:1008A00090E00E948F0690E00E94BE01FF91EF91C0
:1008B000BF91AF919F918F917F916F915F914F9178
:1008C0003F912F910F900FBE0F901F90189597FB9F
:1008D000092E07260AD077FD04D00CD006D00020C0
:1008E0001AF4709561957F4F0895F6F7909581956C
:1008F0009F4F0895AA1BBB1B51E107C0AA1FBB1F36
:10090000A617B70710F0A61BB70B881F991F5A959B
:10091000A9F780959095BC01CD010895AEE0B0E0B7
:10092000E4E9F4E00C9452070D891E8986E08C837B
:100930001A8309838FEF9FE79E838D839E01275E35
:100940003F4FCE0101966F89788DA9010E94B204B4
:100950002F813885020F131FF80110822E96E4E0D4
:100960000C946E07ABE0B0E0E8EBF4E00C944407C5
:100970003C012B015A01FC0117821682838181FD03
:1009800003C06FEF7FEFC6C19AE0892E1E01089465
:10099000211C311CF3012381F20123FD859123FFEA
:1009A00081912F01882309F4B2C1853239F423FDE6
:1009B000859123FF81912F01853229F490E0B301C5
:1009C0000E94BA06E7CF982FFF24EE249924FFE176
:1009D000FF15D0F09B3269F09C3228F4903259F028
:1009E000933291F40EC09D3249F0903369F441E0A6
:1009F00024C052E0F52A84E0F82A28C098E0F92AB9
:100A000025C0E0E1FE2A22C0F7FC29C0892F8053CF
:100A10008A3070F4F6FE05C0989C902C1124980E34
:100A200015C0E89CE02C1124E80EF0E2FF2A0EC06D
:100A30009E3229F4F6FC6BC140E4F42A07C09C36D0
:100A400019F450E8F52A02C0983649F4F20123FD62
:100A5000959123FF91912F01992309F0B8CF892F08
:100A60008554833018F08052833038F444E050E0ED
:100A7000A40EB51E5FE359830FC0933631F0933750
:100A800079F0933509F056C020C0F5018081898343
:100A900042E050E0A40EB51E610101E010E012C07A
:100AA000F501C080D180F6FC03C06FEF7FEF02C07C
:100AB000692D70E042E050E0A40EB51EC6010E9410
:100AC000AF068C015FE7F52214C0F501C080D1802C
:100AD000F6FC03C06FEF7FEF02C0692D70E042E0CB
:100AE00050E0A40EB51EC6010E94A4068C0150E879
:100AF000F52AF3FE07C01AC080E290E0B3010E941D
:100B0000BA06EA948E2D90E008171907A8F30EC0D4
:100B1000F601F7FC8591F7FE81916F0190E0B3013A
:100B20000E94BA06E110EA94015010400115110527
:100B300079F7EAC0943611F0993669F5F7FE08C0E6
:100B4000F501208131814281538184E090E00AC027
:100B5000F501808191819C01442737FD4095542FF8
:100B600082E090E0A80EB91E9FE6F92257FF09C067
:100B700050954095309521953F4F4F4F5F4FE0E89E
:100B8000FE2ACA01B901A1012AE030E00E94E6066E
:100B9000D82ED21840C0953729F41F2D1F7E2AE089
:100BA00030E01DC01F2D197F9F3661F0903720F473
:100BB000983509F0ACC00FC0903739F0983709F07C
:100BC000A6C004C028E030E00AC0106114FD146023
:100BD00020E130E004C014FD166020E132E017FF90
:100BE00008C0F501608171818281938144E050E009
:100BF00008C0F50180819181BC0180E090E042E075
:100C000050E0A40EB51EA1010E94E606D82ED2180F
:100C10008FE7F82EF122F6FE0BC05EEFF522D91415
:100C200038F4F4FE07C0F2FC05C08FEEF82202C0D3
:100C30001D2D01C0192DF4FE0DC0FE01ED0DF11D9D
:100C40008081803319F499EEF92208C01F5FF2FE0B
:100C500005C003C08F2D867809F01F5F0F2DF3FCB0
:100C600014C0F0FE0FC01E1510F09D2C0BC09D2C63
:100C70009E0C911A1E2D06C080E290E0B3010E94E6
:100C8000BA061F5F1E15C0F304C01E1510F4E11A4A
:100C900001C0EE2404FF0FC080E390E0B3010E9486
:100CA000BA0602FF1DC001FD03C088E790E00EC038
:100CB00088E590E00BC0802F867891F001FF02C09C
:100CC0008BE201C080E2F7FC8DE290E0B3010E946C
:100CD000BA0606C080E390E0B3010E94BA069A9477
:100CE000D914C0F3DA94F101ED0DF11D808190E08B
:100CF000B3010E94BA06DD20A9F706C080E290E0A9
:100D0000B3010E94BA06EA94EE20C1F743CEF30184
:100D100066817781CB012B96E2E10C946007E19923
:100D2000FECF9FBB8EBBE09A99278DB30895262FE7
:100D3000E199FECF9FBB8EBB2DBB0FB6F894E29A14
:100D4000E19A0FBE01960895FC0105906150704034
:100D50000110D8F7809590958E0F9F1F0895FC0184
:100D60006150704001900110D8F7809590958E0FDA
:100D70009F1F08950F931F93CF93DF938C01EB0177
:100D80008B8181FF1BC082FF0DC02E813F818C8132
:100D90009D812817390764F4E881F9810193F9836B
:100DA000E88306C0E885F985802F0995892B31F401
:100DB0008E819F8101969F838E8302C00FEF1FEF6C
:100DC000C801DF91CF911F910F910895FA01AA27D1
:100DD000283051F1203181F1E8946F936E7F6E5F7E
:100DE0007F4F8F4F9F4FAF4FB1E03ED0B4E03CD02C
:100DF000670F781F891F9A1FA11D680F791F8A1F0F
:100E0000911DA11D6A0F711D811D911DA11D20D075
:100E100009F468943F912AE0269F11243019305D2F
:100E20003193DEF6CF010895462F4770405D419320
:100E3000B3E00FD0C9F7F6CF462F4F70405D4A336D
:100E400018F0495D31FD4052419302D0A9F7EACF35
:100E5000B4E0A6959795879577956795BA95C9F764
:100E600000976105710508959B01AC010A2E069457
:100E70005795479537952795BA95C9F7620F731F10
:100E8000841F951FA01D08952F923F924F925F924D
:100E90006F927F928F929F92AF92BF92CF92DF928A
:100EA000EF92FF920F931F93CF93DF93CDB7DEB7EF
:100EB000CA1BDB0B0FB6F894DEBF0FBECDBF099483
:100EC0002A88398848885F846E847D848C849B84DA
:100ED000AA84B984C884DF80EE80FD800C811B81E8
:100EE000AA81B981CE0FD11D0FB6F894DEBF0FBE17
:0A0EF000CDBFED010895F894FFCF87
:100EFA0025640020202020004343573D0043573DEE
:100F0A000020202000533120436F6E66696700532A
:100F1A003220436F6E6669670057616974696E674C
:0A0F2A002E2E2E00202000010100F1
:00000001FF
