:100000000C9446000C945D000C945D000C945D0013
:100010000C945D000C945D000C945D000C945D00EC
:100020000C945D000C945D000C945D000C945D00DC
:100030000C945D000C945D000C945D000C945D00CC
:100040000C945D000C945D000C945D000C945D00BC
:100050000C945D000C945D000C945D000C945D00AC
:100060000C945D000C945D000C945D000C945D009C
:100070000C945D000C945D000C945D000C945D008C
:100080000C945D000C945D000C945D0011241FBE67
:10009000CFEFD0E1DEBFCDBF11E0A0E0B1E0EEEFE9
:1000A000F0E000E00BBF02C007900D92A030B10756
:1000B000D9F70E945F000C947D000C9400008091A1
:1000C0006400816180936400809165008160809309
:1000D00065002CEA38E04AE18091650080618093F8
:1000E0006500C9010197F1F7809165008F7E8093CB
:0E00F0006500842F8A95F1F7EFCFF894FFCFCB
:00000001FF
